<?xml version="1.0" encoding="UTF-8" standalone="no"?>
<!DOCTYPE html PUBLIC "-//W3C//DTD XHTML 1.0 Transitional//EN" "http://www.w3.org/TR/xhtml1/DTD/xhtml1-transitional.dtd"><html xmlns="http://www.w3.org/1999/xhtml"><head><meta http-equiv="Content-Type" content="text/html; charset=UTF-8" /><title>16.5. web3.eth</title><link rel="stylesheet" type="text/css" href="../..//docbook.css" /><meta name="generator" content="DocBook XSL Stylesheets Vsnapshot" /><link rel="home" href="../../index.html" title="Netkiller Blockchain 手札" /><link rel="up" href="index.html" title="第 16 章 web3.js - 1.0.0" /><link rel="prev" href="web3.html" title="16.4. web3" /><link rel="next" href="web3.js.eth.personal.html" title="16.6. 账号管理" /></head><body><a xmlns="" href="//www.netkiller.cn/">Home</a> |
		<a xmlns="" href="//netkiller.github.io/">简体中文</a> |
	    <a xmlns="" href="http://netkiller.sourceforge.net/">繁体中文</a> |
	    <a xmlns="" href="/journal/index.html">杂文</a> |
	    <a xmlns="" href="https://zhuanlan.zhihu.com/netkiller">知乎专栏</a> |
	    <a xmlns="" href="https://github.com/netkiller">Github</a> |
	    <a xmlns="" href="http://my.oschina.net/neochen/">OSChina 博客</a> |
	    <a xmlns="" href="https://cloud.tencent.com/developer/column/2078">云社区</a> |
	    <a xmlns="" href="https://yq.aliyun.com/u/netkiller/">云栖社区</a> |
	    <a xmlns="" href="https://www.facebook.com/bg7nyt">Facebook</a> |
	    <a xmlns="" href="http://cn.linkedin.com/in/netkiller/">Linkedin</a> |
	    <a xmlns="" href="//www.netkiller.cn/home/video.html">视频教程</a> |
	    <a xmlns="" href="//www.netkiller.cn/home/donations.html">打赏(Donations)</a> |
	    <a xmlns="" href="//www.netkiller.cn/home/about.html">About</a><div class="navheader"><table width="100%" summary="Navigation header"><tr><th colspan="3" align="center">16.5. web3.eth</th></tr><tr><td width="20%" align="left"><a accesskey="p" href="web3.html">上一页</a> </td><th width="60%" align="center">第 16 章 web3.js - 1.0.0</th><td width="20%" align="right"> <a accesskey="n" href="web3.js.eth.personal.html">下一页</a></td></tr></table><hr /></div><table xmlns=""><tr><td><iframe src="//ghbtns.com/github-btn.html?user=netkiller&amp;repo=netkiller.github.io&amp;type=watch&amp;count=true&amp;size=large" height="30" width="170" frameborder="0" scrolling="0" style="width:170px; height: 30px;" allowTransparency="true"></iframe></td><td><iframe src="//ghbtns.com/github-btn.html?user=netkiller&amp;repo=netkiller.github.io&amp;type=fork&amp;count=true&amp;size=large" height="30" width="170" frameborder="0" scrolling="0" style="width:170px; height: 30px;" allowTransparency="true"></iframe></td><td><iframe src="//ghbtns.com/github-btn.html?user=netkiller&amp;type=follow&amp;count=true&amp;size=large" height="30" width="240" frameborder="0" scrolling="0" style="width:240px; height: 30px;" allowTransparency="true"></iframe></td><td></td><td><a href="https://zhuanlan.zhihu.com/netkiller"><img src="/images/logo/zhihu-card-default.svg" height="25" /></a></td><td valign="middle"><a href="https://zhuanlan.zhihu.com/netkiller">知乎专栏</a> ｜ <a href="https://www.zhihu.com/club/1241768772601950208">多维度架构</a></td><td> | </td><td>微信号 netkiller-ebook  </td><td> | </td><td>QQ群：128659835 请注明“读者”</td></tr></table><div class="section"><div class="titlepage"><div><div><h2 class="title" style="clear: both"><a id="web3.js.eth"></a>16.5. web3.eth</h2></div></div></div>
		
		<div class="section"><div class="titlepage"><div><div><h3 class="title"><a id="web3.js.eth.getAccounts()"></a>16.5.1. 查看账号列表</h3></div></div></div>
			
			<pre class="screen">
			
var Web3 = require('web3');
var web3 = new Web3('http://localhost:8545');

web3.eth.getAccounts().then(console.log);		
			
			</pre>
		</div>
		<div class="section"><div class="titlepage"><div><div><h3 class="title"><a id="web3.js.eth.getCoinbase()"></a>16.5.2. 查询矿工账号</h3></div></div></div>
			
			<pre class="screen">
			
var Web3 = require('web3');
var web3 = new Web3('http://localhost:8545');
			
web3.eth.getCoinbase().then(console.log);			
			
			</pre>
			<p>Callback 方式 </p>
			<pre class="screen">
			
web3.eth.getCoinbase(
    function(error, result){ 
    if (error) {
        console.error(error);
    } else {
        console.log(result); 
    }
 })			
			
			</pre>

		</div>
		<div class="section"><div class="titlepage"><div><div><h3 class="title"><a id="web3.js.eth.getBalance()"></a>16.5.3. 获得余额</h3></div></div></div>
			
			<pre class="programlisting">
			
web3.eth.getBalance(req.query.address).then(function(balance){
      res.json({"status": true, "code":0, "data":{"account":req.query.address, "balance": web3.utils.fromWei(balance)}}); 
});
			
			</pre>
			<p>Callback 方式</p>
			<pre class="programlisting">
			
web3.eth.getBalance(req.query.address, function (error, wei) {
    if (!error) {
        var balance = web3.utils.fromWei(wei, 'ether');
        res.json({"status": true, "code":0, "data":{"account":req.query.address, "balance": balance}});
    }else{
        console.log(error);
        res.json({"status": false, "code":1, "data":{"error":error.message}});
    }
});
			
			</pre>
			<p>捕捉错误</p>
			<pre class="programlisting">
			
router.get('/balance.json', function(req, res) {
 
	try {
		web3.eth.getBalance(req.query.address, function (error, wei) {
		    if (!error) {
		        var balance = web3.utils.fromWei(wei, 'ether');
		        res.json({"status": true, "code":0, "data":{"account":req.query.address, "balance": balance}});
		    }else{
		        console.log(error);
		        res.json({"status": false, "code":1, "data":{"error":error.message}})
	       }
		});
	}
	catch(error){
		res.json({"status": false, "code":1, "data":{"error":error.message}});
	};

});				
			
			</pre>
		</div>
		<div class="section"><div class="titlepage"><div><div><h3 class="title"><a id="web3.js.eth.sendTransaction()"></a>16.5.4. web3.eth.sendTransaction()</h3></div></div></div>
			
			<pre class="programlisting">
			
web3.eth.sendTransaction({
    from: coinbase,
    to: '0x2C687bfF93677D69bd20808a36E4BC2999B4767C',
    value: web3.utils.toWei('2','ether')
},
function(error, result){
    if(!error) {
        console.log("#" + result + "#")
    } else {
        console.error(error);
    }
});

var code = "0x603d80600c6000396000f3007c01000000000000000000000000000000000000000000000000000000006000350463c6888fa18114602d57005b6007600435028060005260206000f3";

web3.eth.sendTransaction({from: coinbase, data: code}, function(err, transactionHash) {
  if (!err)
    console.log(transactionHash); // "0x7f9fade1c0d57a7af66ab4ead7c2eb7b11a91385"
});

web3.eth.sendTransaction({from: coinbase, data: code}).then(function(receipt){
        console.log(receipt);
});			
			
			</pre>
		</div>
		<div class="section"><div class="titlepage"><div><div><h3 class="title"><a id="web3.js.eth.sendSignedTransaction"></a>16.5.5. web3.eth.sendSignedTransaction() 私钥签名转账</h3></div></div></div>
			
			<div class="section"><div class="titlepage"><div><div><h4 class="title"><a id="idp293"></a>16.5.5.1. 例子1</h4></div></div></div>
				
				<pre class="programlisting">
			
var account = web3.eth.accounts.privateKeyToAccount(privateKey);

web3.eth.accounts.signTransaction({
  from: account.address,
  to: "0x0013a861865d74b13ba94713d4e84d97c57e7081",
  gas: "3000000",
  value: '100000000000000000',
  gasPrice: '0x09184e72a000',
  data: "0x00"
}, account.privateKey)
.then(function(result) {
  console.log("Results: ", result)

  web3.eth.sendSignedTransaction(result.rawTransaction)
    .on('receipt', console.log);
})			
			
				</pre>
			</div>
			<div class="section"><div class="titlepage"><div><div><h4 class="title"><a id="idp294"></a>16.5.5.2. 例子2</h4></div></div></div>
				

				<p>获取 pending 状态的区块</p>
				<pre class="screen">
			
[ethereum@netkiller web3.example]$ vim test.js
[ethereum@netkiller web3.example]$ export PRIVATE_KEY=585a219fd6a5583b325e96770a88e69660f404efc06e56be71d82beedb7a989e
[ethereum@netkiller web3.example]$ echo $PRIVATE_KEY
585a219fd6a5583b325e96770a88e69660f404efc06e56be71d82beedb7a989e
[ethereum@netkiller web3.example]$ node
&gt; process.env["PRIVATE_KEY"]
'585a219fd6a5583b325e96770a88e69660f404efc06e56be71d82beedb7a989e'
			
				</pre>
				<pre class="programlisting">
			
[ethereum@netkiller web3.example]$ cat transfer.js
fs = require('fs');
const Web3 = require('web3');
var Tx = require('ethereumjs-tx');
const web3 = new Web3('http://localhost:8545');
console.log(web3.version)

coinbase 	= "0xaa96686a050e4916afbe9f6d8c5107062fa646dd";
address 	= "0x372fda02e8a1eca513f2ee5901dc55b8b5dd7411"
contractAddress = "0x9ABcF16f6685fE1F79168534b1D30056c90B8A8A"

const main = async () =&gt; {
	var balance = await web3.eth.getBalance(coinbase);
	console.log(`Balance ETH: ${balance} \n`);

	const abi = fs.readFileSync('output/NetkillerToken.abi', 'utf-8');
	const contract = new web3.eth.Contract(JSON.parse(abi), contractAddress, { from: address});

	var balance = await contract.methods.balanceOf(address).call();
	console.log(`Balance before send: ${balance} \n`);

	var count = await web3.eth.getTransactionCount(coinbase);
	const gasPrice = await web3.eth.getGasPrice();
	console.log(`gasPrice: ${gasPrice}\n`)
    	var gasLimit = 1000000;
	var transferAmount = 1000;
    // Chain ID of Ropsten Test Net is 3, replace it to 1 for Main Net
    var chainId = 1;

    var rawTransaction = {
        "from": coinbase,
        /* "nonce": "0x" + count.toString(16),*/
        "nonce":  web3.utils.toHex(count),
        "gasPrice": web3.utils.toHex(gasPrice),
        "gasLimit": web3.utils.toHex(gasLimit),
        "to": contractAddress,
        "value": "0x0",
        "data": contract.methods.transfer(address, transferAmount).encodeABI(),
        "chainId": web3.utils.toHex(chainId)
    };

    console.log(`Raw of Transaction: \n${JSON.stringify(rawTransaction, null, '\t')}\n`);

    // The private key for myAddress in .env
    var privateKey = new Buffer(process.env["PRIVATE_KEY"], 'hex');
    var tx = new Tx(rawTransaction);
    tx.sign(privateKey);
    var serializedTx = tx.serialize();

    // Comment out these four lines if you don't really want to send the TX right now
    console.log(`Attempting to send signed tx:  ${serializedTx.toString('hex')}\n`);

    var receipt = await web3.eth.sendSignedTransaction('0x' + serializedTx.toString('hex'));

    // The receipt info of transaction, Uncomment for debug
    console.log(`Receipt info: \n${JSON.stringify(receipt, null, '\t')}\n`);

    // The balance may not be updated yet, but let's check
	var balance = await contract.methods.balanceOf(address).call();
	console.log(`Balance after send: ${balance}`);
}

main();
			
				</pre>
				<pre class="screen">
			
[ethereum@netkiller web3.example]$ node test.js
1.0.0-beta.34
Balance ETH: 8695480352861952

Balance before send: 100

gasPrice: 3000000000

Raw of Transaction:
{
	"from": "0xaa96686a050e4916afbe9f6d8c5107062fa646dd",
	"nonce": "0x20",
	"gasPrice": "0xb2d05e00",
	"gasLimit": "0xf4240",
	"to": "0x9ABcF16f6685fE1F79168534b1D30056c90B8A8A",
	"value": "0x0",
	"data": "0xa9059cbb000000000000000000000000372fda02e8a1eca513f2ee5901dc55b8b5dd741100000000000000000000000000000000000000000000000000000000000003e8",
	"chainId": "0x1"
}

Attempting to send signed tx:  f8a92084b2d05e00830f4240949abcf16f6685fe1f79168534b1d30056c90b8a8a80b844a9059cbb000000000000000000000000372fda02e8a1eca513f2ee5901dc55b8b5dd741100000000000000000000000000000000000000000000000000000000000003e825a05017058348d8f751cc40e71c13a63b8d8e21683841bd002c9f6bf691d34b6a4ba07df3fa8792aa66cc272ff89373509f6335272a4298e98177536a79c8ab7c947c

Receipt info:
{
	"blockHash": "0x32f45f27040b1df616ff4efd25557416793782541b995a6d4ecbd66f8441783f",
	"blockNumber": 5518045,
	"contractAddress": null,
	"cumulativeGasUsed": 5054117,
	"from": "0xaa96686a050e4916afbe9f6d8c5107062fa646dd",
	"gasUsed": 36184,
	"logs": [
		{
			"address": "0x9ABcF16f6685fE1F79168534b1D30056c90B8A8A",
			"topics": [
				"0xddf252ad1be2c89b69c2b068fc378daa952ba7f163c4a11628f55a4df523b3ef",
				"0x000000000000000000000000aa96686a050e4916afbe9f6d8c5107062fa646dd",
				"0x000000000000000000000000372fda02e8a1eca513f2ee5901dc55b8b5dd7411"
			],
			"data": "0x00000000000000000000000000000000000000000000000000000000000003e8",
			"blockNumber": 5518045,
			"transactionHash": "0x203ebcbe1cc8340c4b5a13f4e6c36a4f63142754437e0f43b0ff5e5c0bf512cc",
			"transactionIndex": 104,
			"blockHash": "0x32f45f27040b1df616ff4efd25557416793782541b995a6d4ecbd66f8441783f",
			"logIndex": 94,
			"removed": false,
			"id": "log_7ef3f104"
		}
	],
	"logsBloom": "0x00000000000000000000000000000000000000000000000000000000000000000000000004000000000000000000000000000000000100000000040000000000000000000000000000000008000000000000000000000000000000000000000000000040000000000000000000000000000000000000000000000010000000000000000000000000000000000000000000000000000000000000000000000000000000000000000000000000000000000000000000000000000000000000002000000002000000000000000000000000000000001200000000000000000000200000000000000000000000000000100000000000000000000000000000000000",
	"status": true,
	"to": "0x9abcf16f6685fe1f79168534b1d30056c90b8a8a",
	"transactionHash": "0x203ebcbe1cc8340c4b5a13f4e6c36a4f63142754437e0f43b0ff5e5c0bf512cc",
	"transactionIndex": 104
}

Balance after send: 1100
			
				</pre>
			</div>
		</div>
		<div class="section"><div class="titlepage"><div><div><h3 class="title"><a id="web3.js.eth.getBlock"></a>16.5.6. web3.eth.getBlock() 获取区块</h3></div></div></div>
			
			<p>获取 pending 状态的区块</p>
			<pre class="screen">
			
web3.eth.getBlock(
    "pending",
function (error, block) {
    if (error) {
        console.error(error);
    } else {
        console.log(block.transactions.length); 
    }
})			
			
			</pre>
		</div>
	</div><div xmlns="" id="disqus_thread"></div><script xmlns="">

var disqus_config = function () {
this.page.url = "http://www.netkiller.cn";  // Replace PAGE_URL with your page's canonical URL variable
this.page.identifier = 'netkiller'; // Replace PAGE_IDENTIFIER with your page's unique identifier variable
};

(function() { // DON'T EDIT BELOW THIS LINE
var d = document, s = d.createElement('script');
s.src = '//netkiller.disqus.com/embed.js';
s.setAttribute('data-timestamp', +new Date());
(d.head || d.body).appendChild(s);
})();
</script><noscript xmlns="">Please enable JavaScript to view the <a href="https://disqus.com/?ref_noscript">comments powered by Disqus.</a></noscript><br xmlns="" /><script xmlns="" type="text/javascript" id="clustrmaps" src="//cdn.clustrmaps.com/map_v2.js?u=r5HG&amp;d=9mi5r_kkDC8uxG8HuY3p4-2qgeeVypAK9vMD-2P6BYM"></script><div class="navfooter"><hr /><table width="100%" summary="Navigation footer"><tr><td width="40%" align="left"><a accesskey="p" href="web3.html">上一页</a> </td><td width="20%" align="center"><a accesskey="u" href="index.html">上一级</a></td><td width="40%" align="right"> <a accesskey="n" href="web3.js.eth.personal.html">下一页</a></td></tr><tr><td width="40%" align="left" valign="top">16.4. web3 </td><td width="20%" align="center"><a accesskey="h" href="../../index.html">起始页</a></td><td width="40%" align="right" valign="top"> 16.6. 账号管理</td></tr></table></div><script xmlns="">
  (function(i,s,o,g,r,a,m){i['GoogleAnalyticsObject']=r;i[r]=i[r]||function(){
  (i[r].q=i[r].q||[]).push(arguments)},i[r].l=1*new Date();a=s.createElement(o),
  m=s.getElementsByTagName(o)[0];a.async=1;a.src=g;m.parentNode.insertBefore(a,m)
  })(window,document,'script','//www.google-analytics.com/analytics.js','ga');

  ga('create', 'UA-11694057-1', 'auto');
  ga('send', 'pageview');

</script><script xmlns="" async="async">
var _hmt = _hmt || [];
(function() {
  var hm = document.createElement("script");
  hm.src = "https://hm.baidu.com/hm.js?93967759a51cda79e49bf4e34d0b0f2c";
  var s = document.getElementsByTagName("script")[0]; 
  s.parentNode.insertBefore(hm, s);
})();
</script><script xmlns="" async="async">
(function(){
    var bp = document.createElement('script');
    var curProtocol = window.location.protocol.split(':')[0];
    if (curProtocol === 'https') {
        bp.src = 'https://zz.bdstatic.com/linksubmit/push.js';        
    }
    else {
        bp.src = 'http://push.zhanzhang.baidu.com/push.js';
    }
    var s = document.getElementsByTagName("script")[0];
    s.parentNode.insertBefore(bp, s);
})();
</script></body></html>